:03000000020AF001
:0C0AF000787FE4F6D8FD75815A020B37C0
:100D2C0001083202460000014500203C0900000089
:100D3C0000000000000000000000000000000000A7
:100D4C000000000000000000000000000000000097
:100D5C000000000000000000000000000000000087
:090D6C000000000000000000007E
:03002B00020A5E68
:100A5E00C0E0C0F0C083C082C0D075D000C000C05E
:0D0A6E0001C002C003C004C005C006C007DF
:100A7B00754F00C2CF0547E54770020546754F001D
:100A8B00E54FC395455043E54F75F006A4240CF88C
:100A9B00E6FC08E6FDAE46AF47120908ED4C7026A2
:100AAB00E54F75F006A42409F8860308E6FA08E674
:100ABB004A4B6012E54F75F006A42409F808E6FAD4
:0A0ACB0008E6F9120A2B054F80B669
:100AD500D007D006D005D004D003D002D001D00075
:0B0AE500D0D0D082D083D0F0D0E0321F
:040EA0004387012261
:0A0CD1008B488A49894AAF05AE043A
:100CDB00E4F54B0545D3E545940A748094804005B3
:100CEB00754B408039E54514FDE54575F006A424A8
:100CFB0008F8A605AD087C00120908E54575F00655
:100D0B00A42406F8A60608A607AA49A94AE545752C
:100D1B00F006A42403F8A64808A60208A601AF4BC8
:010D2B0022A5
:060B7C008B488A49894AFA
:100B8200754B01E4F54CF54CE54CC39545506FE5CA
:100B92004C75F006A42409F8860308E6FA08E6F97B
:100BA200E548854983854A826B7008E9658270034E
:100BB200EA65837045F54BE54514FFE54CC39F504C
:100BC20024E54C75F006A4FF240FF9E4FAFBC001FA
:100BD20074092FF9E4A801FCFDD001FE7F0612087A
:100BE200D0054C80D2E54575F006A42403F87600C2
:100BF20008760008760015458004054C808AAF4BC4
:010C020022CF
:050E9B00120EA080FB17
:100E02008F08EFD394417480948040028003120DC6
:030E1200837F00DB
:010E150022BA
:060DEC008B548A55895664
:0F0DF200E4FFE94A4B6005E5080208F6430704F1
:010E010022CE
:100D8300E4F548C2CA75C804AF08FE7C2E7DE012A4
:100D93000A31E47B0CFAF9F81209998F4C8E4B8DCA
:100DA3004A8C49C3E49FFFE49EF5CDF5CB8FCC8FEE
:090DB300CAD2ADD2CAD2AFAF48DA
:010DBC002214
:030EA400B29322E4
:030EA700B29422E0
:030EAA00B29522DC
:030EAD00B29622D8
:030EB000B29722D4
:0B0E8000D293C294C295D296C2972272
:100C6C00120D83120E63120E807BFF7A0D79BD7DFF
:100C7C00E87C03120CD17BFF7A0E79A47DE87C030F
:100C8C00120CD17BFF7A0E79A77DD07C07120CD188
:100C9C007BFF7A0E79AA7DA07C0F120CD17BFF7A98
:100CAC000E79B07DE87C03120CD17BFF7A0E79AD06
:100CBC007D887C13120CD17BFF7A0E79B0120B7CE1
:050CCC00120E9B80FEEA
:070D750001570002580000C5
:0E0E6300E4FFF558F559F557D290C291C292AE
:010E7100225E
:080E8B00E4FFC290C291C29283
:010E9300223C
:0D0E7200E4F55A8F57120DBDEF425AAF5AEA
:010E7F002250
:070E9400E4FFE5570208F638
:100DBD00E4F548E55714600F146011146013240313
:100DCD007017120E2A800D120E168008120E3D801D
:0E0DDD0003120E50EF42488003434820AF48F7
:010DEB0022E5
:100E2A00E4F54985504DFBFD7F01120C03EF424961
:020E3A00AF49BE
:010E3C002293
:100E1600E4F54985514DFB7D017F01120C03EF423C
:030E260049AF4988
:010E290022A6
:100E3D00E4F54985524D7B01FDFF120C03EF42494C
:020E4D00AF49AB
:010E4F002280
:100E5000E4F54985534DFB7D01FF120C03EF424938
:020E6000AF4998
:010E6200226D
:040C03008F4AA90566
:100C0700E4FFF54EE54DFD0559E55970020558C35A
:100C17009DE5589400403DE4F558F559E5571460B3
:100C27001114601814601F24037025755701D290A2
:100C3700800F755702C290C291D29222755703C294
:100C470090D291C29222E4F557D290C291C29222D9
:100C570043072022E54A24FF9290E924FF9291EB73
:040C670024FF929242
:010C6B002266
:060D7C0004500A020A0205
:100AFC00020C6CE493A3F8E493A34003F68001F298
:100B0C0008DFF48029E493A3F85407240CC8C333FA
:100B1C00C4540F4420C8834004F456800146F6DFC9
:100B2C00E4800B0102040810204080900D2CE47E20
:100B3C00019360BCA3FF543F30E509541FFEE493BE
:100B4C00A360010ECF54C025E060A840B8E493A385
:100B5C00FAE493A3F8E493A3C8C582C8CAC583CAB0
:100B6C00F0A3C8C582C8CAC583CADFE9DEE780BE68
:010D82000070
:10080000E709F608DFFA8046E709F208DFFA803EDA
:1008100088828C83E709F0A3DFFA8032E309F608C7
:10082000DFFA8078E309F208DFFA807088828C832F
:10083000E309F0A3DFFA806489828A83E0A3F608E3
:10084000DFFA805889828A83E0A3F208DFFA804CBD
:1008500080D280FA80C680D4806980F28033801094
:1008600080A680EA809A80A880DA80E280CA8033FD
:1008700089828A83ECFAE493A3C8C582C8CCC58375
:10088000CCF0A3C8C582C8CCC583CCDFE9DEE78045
:100890000D89828A83E493A3F608DFF9ECFAA9F0C4
:1008A000EDFB2289828A83ECFAE0A3C8C582C8CC1A
:1008B000C583CCF0A3C8C582C8CCC583CCDFEADE33
:1008C000E880DB89828A83E493A3F208DFF980CC95
:1008D00088F0EF60010E4E60C388F0ED2402B4048E
:1008E0000050B9F582EB2402B4040050AF23234535
:0608F00082239008507302
:1008F600BB010689828A83F0225002F722BBFE01E1
:02090600F322DA
:10090800BC000BBE0029EF8DF084FFADF022E4CCD3
:10091800F875F008EF2FFFEE33FEEC33FCEE9DEC9C
:10092800984005FCEE9DFE0FD5F0E9E4CEFD22EDE2
:10093800F8F5F0EE8420D21CFEADF075F008EF2F2C
:10094800FFED33FD4007985006D5F0F222C398FD1D
:050958000FD5F0EA22BA
:10095D0075F008758200EF2FFFEE33FECD33CDCC51
:10096D0033CCC58233C5829BED9AEC99E5829840D4
:10097D000CF582EE9BFEED9AFDEC99FC0FD5F0D6B1
:10098D00E4CEFBE4CDFAE4CCF9A88222B800C1B9DB
:10099D000059BA002DEC8BF084CFCECDFCE5F0CB19
:1009AD00F97818EF2FFFEE33FEED33FDEC33FCEB52
:1009BD0033FB10D703994004EB99FB0FD8E5E4F90D
:1009CD00FA227818EF2FFFEE33FEED33FDEC33FCFA
:1009DD00C933C910D7059BE99A4007EC9BFCE99AEE
:1009ED00F90FD8E0E4C9FAE4CCFB2275F010EF2F33
:1009FD00FFEE33FEED33FDCC33CCC833C810D70733
:100A0D009BEC9AE899400AED9BFDEC9AFCE899F86D
:0E0A1D000FD5F0DAE4CDFBE4CCFAE4C8F92200
:060A2B008A838982E47356
:100A3100EC8EF0A4CCC5F0CCCDF8EFA4CEC5F02D52
:100A4100FDE43CFCE8A42EC8C5F03DFDE43CFCEF10
:0D0A5100A4FFE5F028FEE43DFDE43CFC229E
:00000001FF
