:03000000020C8F60
:0C0C8F00787FE4F6D8FD75817C020CD65D
:100DA400015800025A0000015900205008000000B8
:100DB400000000000000000000000000000000002F
:100DC400000000000000000000000000000000001F
:100DD400000000000000000000000000000000000F
:100DE40000000000000000000000000000000000FF
:0D0DF40000000000000000000000000000F2
:060EDB008B5C8A5D895E5C
:100EE100E4F55FC3E559940874809480503B05593B
:100EF100E55914FFE55975F00AA42407F8A607AED1
:100F010004AF05E4FCFDE55975F00AA42401F812CB
:100F11000A82AA5DA95EE55975F00AA424FEF8A625
:0E0F21005C08A60208A6018003435F40AF5F94
:010F2F00229F
:060D1B008B5C8A5D895E1D
:100D2100755F01E4F560E560C395595073E5607541
:100D3100F00AA42408F8860308E6FA08E6F9E55C57
:100D4100855D83855E826B7008E965827003EA6563
:100D5100837049E55914FFE560C39F5024E5607530
:100D6100F00AA4FF2412F9E4FAFBC00174082FF978
:100D7100E4A801FCFDD001FE7F0A1208D0056080C5
:100D8100D21559E55975F00AA42408F876000876B9
:100D910000087600120F30EF425F80040560808604
:020DA100AF5F42
:010DA300222D
:0810B800120F3043870180FB99
:061017008B6A8A6B896CF4
:10101D00E4FFE94A4B6012E5587003755841AB6A1D
:0C102D00AA6BA96CE5580208F643070402
:011039002294
:100F7C00E4F568C2CA75C804FB7A007969121017C7
:100F8C00EF4268AF697E007C2E7DE0120A94E47B10
:100F9C000CFAF9F8120999C3E49FFFE49EF5CDF51C
:0D0FAC00CB8FCC8FCAD2ADD2CAD2AFAF6806
:010FB9002215
:03002B00020C00C4
:100C0000C0E0C0F0C083C082C0D075D000C000C0BA
:0D0C100001C002C003C004C005C006C0073B
:100C1D00C2CF055BE55B7002055A757400E574C3C0
:100C2D0095595043E57475F00AA4240FF8E6FC08B5
:100C3D00E6FDAE5AAF5B120908ED4C7026E57475F2
:100C4D00F00AA42408F8860308E6FA08E64A4B6081
:100C5D0012E57475F00AA42408F808E6FA08E6F916
:070C6D00120A8E057480B627
:100C7400D007D006D005D004D003D002D001D000D4
:0B0C8400D0D0D082D083D0F0D0E0327E
:100F3000E4F561FB7A007962120B01EF4261AF6563
:100F4000120FE9EF4261E4F566E566C39559502951
:100F5000E56675F00AA4240BF8120A76AB65AA645C
:100F6000A963A862120999E56675F00AA4240FF82E
:0B0F7000A60608A607056680D0AF614A
:010F7B002253
:060B01008B678A68896918
:100B0700E4F56AAF0EAE0DAD0CAC0B120A5C757353
:100B170001E573C39559506EE57375F00AA4240B6C
:100B2700F8120A768F728E718D708C6FE4FFFEFD5E
:100B3700FCAB72AA71A970A86FC3120A2B6043ABF2
:100B470067AA68A969120A3CAB72AA71A970A86F53
:100B5700120999AC00AD01AE02AF038F6E8E6D8D99
:100B67006C8C6BAF72AE71AD70AC6FAB67AA68A9D6
:100B770069120A5C856E72856D71856C70856B6F05
:100B870080AA0573808B757302AB67AA68A969127F
:100B97000A3CE47B41FAF9F8C3120A2B5058AB67B9
:100BA700AA68A969120A3CC007AF73AB07E4FAF950
:100BB700F8D007120999AC00AD01AE02AF03E4FB10
:100BC700FAF9F8C3120A2B6004057380D1AB67AA40
:100BD70068A969C003C002C001120A3CC007AF730D
:100BE700AB07E4FAF9F8D007120999D001D002D07F
:080BF70003120A5C8093AF6A4F
:010BFF0022D3
:100FE900E4F567EFFD7C00D3944174809480501838
:100FF900ED940574809480500575580580028F58CA
:0D100900120F7CEF42678003436740AF6722
:0110160022B7
:0310C700B29322BF
:0310CA00B29422BB
:0310CD00B29522B7
:0310D000B29622B3
:0310D300B29722AF
:0B10A400D293C294C295D296C297224C
:100E7800120F7C1210871210A47BFF7A0F79BA7DAB
:100E8800E87C03120EDB7BFF7A1079C77DE87C03D0
:100E9800120EDB7BFF7A1079CA7DD07C07120EDB3D
:100EA8007BFF7A1079CD7DA07C0F120EDB7BFF7A59
:100EB8001079D37DD07C07120EDB7BFF7A1079D0B6
:100EC8007D887C13120EDB7BFF7A1079D3120D1B01
:030ED8000210B84D
:070E0100017900027A0000F4
:0E108700E4FFF57AF57BF579D290C291C29222
:011095002238
:0810AF00E4FFC290C291C2925D
:0110B7002216
:0D109600E4F57C8F79120FBAEF427CAF7C3D
:0110A300222A
:0710C000E4FFE5790208F6E8
:100FBA00E4F55CE57914600F1460111460132403DE
:100FCA00701712104E800D12103A800812106180AC
:0E0FDA0003121074EF425C8003435C20AF5C96
:010FE80022E6
:10104E00E4F55D857561FBFD7F01120E0FEF425DCC
:02105E00AF5D84
:01106000226D
:10103A00E4F55D857661FB7D017F01120E0FEF42BB
:03104A005DAF5D3A
:01104D002280
:10106100E4F55D8577617B01FDFF120E0FEF425DB7
:02107100AF5D71
:01107300225A
:10107400E4F55D857861FB7D01FF120E0FEF425DA3
:02108400AF5D5E
:011086002247
:040E0F008F5EA90544
:100E1300E4FFF562E561FD057BE57B7002057AC3BE
:100E23009DE57A9400403DE4F57AF57BE57914601D
:100E33001114601814601F24037025757901D29072
:100E4300800F757902C290C291D29222757903C242
:100E530090D291C29222E4F579D290C291C29222A9
:100E630043072022E55E24FF9290E924FF9291EB51
:040E730024FF929234
:010E77002258
:060E08000475040204025F
:100C9B00020E78E493A3F8E493A34003F68001F2E9
:100CAB0008DFF48029E493A3F85407240CC8C3335A
:100CBB00C4540F4420C8834004F456800146F6DF29
:100CCB00E4800B0102040810204080900DA4E47E08
:100CDB00019360BCA3FF543F30E509541FFEE4931E
:100CEB00A360010ECF54C025E060A840B8E493A3E5
:100CFB00FAE493A3F8E493A3C8C582C8CAC583CA10
:100D0B00F0A3C8C582C8CAC583CADFE9DEE780BEC7
:010E0E0000E3
:10080000E709F608DFFA8046E709F208DFFA803EDA
:1008100088828C83E709F0A3DFFA8032E309F608C7
:10082000DFFA8078E309F208DFFA807088828C832F
:10083000E309F0A3DFFA806489828A83E0A3F608E3
:10084000DFFA805889828A83E0A3F208DFFA804CBD
:1008500080D280FA80C680D4806980F28033801094
:1008600080A680EA809A80A880DA80E280CA8033FD
:1008700089828A83ECFAE493A3C8C582C8CCC58375
:10088000CCF0A3C8C582C8CCC583CCDFE9DEE78045
:100890000D89828A83E493A3F608DFF9ECFAA9F0C4
:1008A000EDFB2289828A83ECFAE0A3C8C582C8CC1A
:1008B000C583CCF0A3C8C582C8CCC583CCDFEADE33
:1008C000E880DB89828A83E493A3F208DFF980CC95
:1008D00088F0EF60010E4E60C388F0ED2402B4048E
:1008E0000050B9F582EB2402B4040050AF23234535
:0608F00082239008507302
:1008F600BB010689828A83F0225002F722BBFE01E1
:02090600F322DA
:10090800BC000BBE0029EF8DF084FFADF022E4CCD3
:10091800F875F008EF2FFFEE33FEEC33FCEE9DEC9C
:10092800984005FCEE9DFE0FD5F0E9E4CEFD22EDE2
:10093800F8F5F0EE8420D21CFEADF075F008EF2F2C
:10094800FFED33FD4007985006D5F0F222C398FD1D
:050958000FD5F0EA22BA
:10095D0075F008758200EF2FFFEE33FECD33CDCC51
:10096D0033CCC58233C5829BED9AEC99E5829840D4
:10097D000CF582EE9BFEED9AFDEC99FC0FD5F0D6B1
:10098D00E4CEFBE4CDFAE4CCF9A88222B800C1B9DB
:10099D000059BA002DEC8BF084CFCECDFCE5F0CB19
:1009AD00F97818EF2FFFEE33FEED33FDEC33FCEB52
:1009BD0033FB10D703994004EB99FB0FD8E5E4F90D
:1009CD00FA227818EF2FFFEE33FEED33FDEC33FCFA
:1009DD00C933C910D7059BE99A4007EC9BFCE99AEE
:1009ED00F90FD8E0E4C9FAE4CCFB2275F010EF2F33
:1009FD00FFEE33FEED33FDCC33CCC833C810D70733
:100A0D009BEC9AE899400AED9BFDEC9AFCE899F86D
:0E0A1D000FD5F0DAE4CDFBE4CCFAE4C8F92200
:100A2B00EB9FF5F0EA9E42F0E99D42F0E89C45F021
:010A3B002298
:100A3C00BB010789828A83020AC15005E9F8020AC0
:100A4C0076BBFE05E9F8020ACD89828A83020AD9AF
:100A5C00BB010789828A83020AE95005E9F8020A78
:0A0A6C0082BBFE05E9F8020AF5223C
:0C0A7600E6FC08E6FD08E6FE08E6FF22AC
:0C0A8200ECF608EDF608EEF608EFF622A0
:060A8E008A838982E473F3
:100A9400EC8EF0A4CCC5F0CCCDF8EFA4CEC5F02DEF
:100AA400FDE43CFCE8A42EC8C5F03DFDE43CFCEFAD
:0D0AB400A4FFE5F028FEE43DFDE43CFC223B
:0C0AC100E0FCA3E0FDA3E0FEA3E0FF22A8
:0C0ACD00E2FC08E2FD08E2FE08E2FF2265
:100AD900E493FC740193FD740293FE740393FF2263
:0C0AE900ECF0A3EDF0A3EEF0A3EFF02280
:0C0AF500ECF208EDF208EEF208EFF2223D
:00000001FF
